{
  "_format": "hh-sol-artifact-1",
  "contractName": "NonTransferableNFT",
  "sourceName": "contracts/PRKT.sol",
  "abi": [
    {
      "inputs": [
        {
          "internalType": "string",
          "name": "name",
          "type": "string"
        },
        {
          "internalType": "string",
          "name": "symbol",
          "type": "string"
        }
      ],
      "stateMutability": "nonpayable",
      "type": "constructor"
    },
    {
      "anonymous": false,
      "inputs": [
        {
          "indexed": true,
          "internalType": "address",
          "name": "owner",
          "type": "address"
        },
        {
          "indexed": true,
          "internalType": "address",
          "name": "approved",
          "type": "address"
        },
        {
          "indexed": true,
          "internalType": "uint256",
          "name": "tokenId",
          "type": "uint256"
        }
      ],
      "name": "Approval",
      "type": "event"
    },
    {
      "anonymous": false,
      "inputs": [
        {
          "indexed": true,
          "internalType": "address",
          "name": "owner",
          "type": "address"
        },
        {
          "indexed": true,
          "internalType": "address",
          "name": "operator",
          "type": "address"
        },
        {
          "indexed": false,
          "internalType": "bool",
          "name": "approved",
          "type": "bool"
        }
      ],
      "name": "ApprovalForAll",
      "type": "event"
    },
    {
      "anonymous": false,
      "inputs": [
        {
          "indexed": true,
          "internalType": "address",
          "name": "previousOwner",
          "type": "address"
        },
        {
          "indexed": true,
          "internalType": "address",
          "name": "newOwner",
          "type": "address"
        }
      ],
      "name": "OwnershipTransferred",
      "type": "event"
    },
    {
      "anonymous": false,
      "inputs": [
        {
          "indexed": true,
          "internalType": "address",
          "name": "from",
          "type": "address"
        },
        {
          "indexed": true,
          "internalType": "address",
          "name": "to",
          "type": "address"
        },
        {
          "indexed": true,
          "internalType": "uint256",
          "name": "tokenId",
          "type": "uint256"
        }
      ],
      "name": "Transfer",
      "type": "event"
    },
    {
      "inputs": [
        {
          "internalType": "address",
          "name": "to",
          "type": "address"
        },
        {
          "internalType": "uint256",
          "name": "tokenId",
          "type": "uint256"
        }
      ],
      "name": "approve",
      "outputs": [],
      "stateMutability": "nonpayable",
      "type": "function"
    },
    {
      "inputs": [
        {
          "internalType": "address",
          "name": "owner",
          "type": "address"
        }
      ],
      "name": "balanceOf",
      "outputs": [
        {
          "internalType": "uint256",
          "name": "",
          "type": "uint256"
        }
      ],
      "stateMutability": "view",
      "type": "function"
    },
    {
      "inputs": [
        {
          "internalType": "uint256",
          "name": "tokenId",
          "type": "uint256"
        }
      ],
      "name": "getApproved",
      "outputs": [
        {
          "internalType": "address",
          "name": "",
          "type": "address"
        }
      ],
      "stateMutability": "view",
      "type": "function"
    },
    {
      "inputs": [
        {
          "internalType": "address",
          "name": "owner",
          "type": "address"
        },
        {
          "internalType": "address",
          "name": "operator",
          "type": "address"
        }
      ],
      "name": "isApprovedForAll",
      "outputs": [
        {
          "internalType": "bool",
          "name": "",
          "type": "bool"
        }
      ],
      "stateMutability": "view",
      "type": "function"
    },
    {
      "inputs": [
        {
          "internalType": "address",
          "name": "to",
          "type": "address"
        },
        {
          "internalType": "uint256",
          "name": "tokenId",
          "type": "uint256"
        }
      ],
      "name": "mint",
      "outputs": [],
      "stateMutability": "nonpayable",
      "type": "function"
    },
    {
      "inputs": [],
      "name": "name",
      "outputs": [
        {
          "internalType": "string",
          "name": "",
          "type": "string"
        }
      ],
      "stateMutability": "view",
      "type": "function"
    },
    {
      "inputs": [],
      "name": "owner",
      "outputs": [
        {
          "internalType": "address",
          "name": "",
          "type": "address"
        }
      ],
      "stateMutability": "view",
      "type": "function"
    },
    {
      "inputs": [
        {
          "internalType": "uint256",
          "name": "tokenId",
          "type": "uint256"
        }
      ],
      "name": "ownerOf",
      "outputs": [
        {
          "internalType": "address",
          "name": "",
          "type": "address"
        }
      ],
      "stateMutability": "view",
      "type": "function"
    },
    {
      "inputs": [],
      "name": "renounceOwnership",
      "outputs": [],
      "stateMutability": "nonpayable",
      "type": "function"
    },
    {
      "inputs": [
        {
          "internalType": "address",
          "name": "from",
          "type": "address"
        },
        {
          "internalType": "address",
          "name": "to",
          "type": "address"
        },
        {
          "internalType": "uint256",
          "name": "tokenId",
          "type": "uint256"
        }
      ],
      "name": "safeTransferFrom",
      "outputs": [],
      "stateMutability": "nonpayable",
      "type": "function"
    },
    {
      "inputs": [
        {
          "internalType": "address",
          "name": "from",
          "type": "address"
        },
        {
          "internalType": "address",
          "name": "to",
          "type": "address"
        },
        {
          "internalType": "uint256",
          "name": "tokenId",
          "type": "uint256"
        },
        {
          "internalType": "bytes",
          "name": "data",
          "type": "bytes"
        }
      ],
      "name": "safeTransferFrom",
      "outputs": [],
      "stateMutability": "nonpayable",
      "type": "function"
    },
    {
      "inputs": [
        {
          "internalType": "address",
          "name": "operator",
          "type": "address"
        },
        {
          "internalType": "bool",
          "name": "approved",
          "type": "bool"
        }
      ],
      "name": "setApprovalForAll",
      "outputs": [],
      "stateMutability": "nonpayable",
      "type": "function"
    },
    {
      "inputs": [
        {
          "internalType": "bytes4",
          "name": "interfaceId",
          "type": "bytes4"
        }
      ],
      "name": "supportsInterface",
      "outputs": [
        {
          "internalType": "bool",
          "name": "",
          "type": "bool"
        }
      ],
      "stateMutability": "view",
      "type": "function"
    },
    {
      "inputs": [],
      "name": "symbol",
      "outputs": [
        {
          "internalType": "string",
          "name": "",
          "type": "string"
        }
      ],
      "stateMutability": "view",
      "type": "function"
    },
    {
      "inputs": [
        {
          "internalType": "uint256",
          "name": "tokenId",
          "type": "uint256"
        }
      ],
      "name": "tokenURI",
      "outputs": [
        {
          "internalType": "string",
          "name": "",
          "type": "string"
        }
      ],
      "stateMutability": "view",
      "type": "function"
    },
    {
      "inputs": [
        {
          "internalType": "address",
          "name": "from",
          "type": "address"
        },
        {
          "internalType": "address",
          "name": "to",
          "type": "address"
        },
        {
          "internalType": "uint256",
          "name": "tokenId",
          "type": "uint256"
        }
      ],
      "name": "transferFrom",
      "outputs": [],
      "stateMutability": "nonpayable",
      "type": "function"
    },
    {
      "inputs": [
        {
          "internalType": "address",
          "name": "newOwner",
          "type": "address"
        }
      ],
      "name": "transferOwnership",
      "outputs": [],
      "stateMutability": "nonpayable",
      "type": "function"
    }
  ],
  "bytecode": "0x60a06040523480156200001157600080fd5b50604051620031e8380380620031e88339818101604052810190620000379190620002bc565b81818160009080519060200190620000519291906200019a565b5080600190805190602001906200006a9291906200019a565b5050506200008d62000081620000cc60201b60201c565b620000d460201b60201c565b3373ffffffffffffffffffffffffffffffffffffffff1660808173ffffffffffffffffffffffffffffffffffffffff1660601b8152505050506200049f565b600033905090565b6000600660009054906101000a900473ffffffffffffffffffffffffffffffffffffffff16905081600660006101000a81548173ffffffffffffffffffffffffffffffffffffffff021916908373ffffffffffffffffffffffffffffffffffffffff1602179055508173ffffffffffffffffffffffffffffffffffffffff168173ffffffffffffffffffffffffffffffffffffffff167f8be0079c531659141344cd1fd0a4f28419497f9722a3daafe3b4186f6b6457e060405160405180910390a35050565b828054620001a890620003c4565b90600052602060002090601f016020900481019282620001cc576000855562000218565b82601f10620001e757805160ff191683800117855562000218565b8280016001018555821562000218579182015b8281111562000217578251825591602001919060010190620001fa565b5b5090506200022791906200022b565b5090565b5b80821115620002465760008160009055506001016200022c565b5090565b6000620002616200025b8462000358565b6200032f565b9050828152602081018484840111156200027a57600080fd5b620002878482856200038e565b509392505050565b600082601f830112620002a157600080fd5b8151620002b38482602086016200024a565b91505092915050565b60008060408385031215620002d057600080fd5b600083015167ffffffffffffffff811115620002eb57600080fd5b620002f9858286016200028f565b925050602083015167ffffffffffffffff8111156200031757600080fd5b62000325858286016200028f565b9150509250929050565b60006200033b6200034e565b9050620003498282620003fa565b919050565b6000604051905090565b600067ffffffffffffffff8211156200037657620003756200045f565b5b62000381826200048e565b9050602081019050919050565b60005b83811015620003ae57808201518184015260208101905062000391565b83811115620003be576000848401525b50505050565b60006002820490506001821680620003dd57607f821691505b60208210811415620003f457620003f362000430565b5b50919050565b62000405826200048e565b810181811067ffffffffffffffff821117156200042757620004266200045f565b5b80604052505050565b7f4e487b7100000000000000000000000000000000000000000000000000000000600052602260045260246000fd5b7f4e487b7100000000000000000000000000000000000000000000000000000000600052604160045260246000fd5b6000601f19601f8301169050919050565b60805160601c612d2a620004be600039600061155f0152612d2a6000f3fe608060405234801561001057600080fd5b506004361061010b5760003560e01c806370a08231116100a2578063a22cb46511610071578063a22cb465146102a4578063b88d4fde146102c0578063c87b56dd146102dc578063e985e9c51461030c578063f2fde38b1461033c5761010b565b806370a082311461022e578063715018a61461025e5780638da5cb5b1461026857806395d89b41146102865761010b565b806323b872dd116100de57806323b872dd146101aa57806340c10f19146101c657806342842e0e146101e25780636352211e146101fe5761010b565b806301ffc9a71461011057806306fdde0314610140578063081812fc1461015e578063095ea7b31461018e575b600080fd5b61012a6004803603810190610125919061200c565b610358565b60405161013791906123ef565b60405180910390f35b61014861043a565b604051610155919061240a565b60405180910390f35b6101786004803603810190610173919061205e565b6104cc565b6040516101859190612388565b60405180910390f35b6101a860048036038101906101a39190611fd0565b610512565b005b6101c460048036038101906101bf9190611eca565b61062a565b005b6101e060048036038101906101db9190611fd0565b61068a565b005b6101fc60048036038101906101f79190611eca565b610717565b005b6102186004803603810190610213919061205e565b610737565b6040516102259190612388565b60405180910390f35b61024860048036038101906102439190611e65565b6107be565b604051610255919061260c565b60405180910390f35b610266610876565b005b61027061088a565b60405161027d9190612388565b60405180910390f35b61028e6108b4565b60405161029b919061240a565b60405180910390f35b6102be60048036038101906102b99190611f94565b610946565b005b6102da60048036038101906102d59190611f19565b61095c565b005b6102f660048036038101906102f1919061205e565b6109be565b604051610303919061240a565b60405180910390f35b61032660048036038101906103219190611e8e565b610a26565b60405161033391906123ef565b60405180910390f35b61035660048036038101906103519190611e65565b610aba565b005b60007f80ac58cd000000000000000000000000000000000000000000000000000000007bffffffffffffffffffffffffffffffffffffffffffffffffffffffff1916827bffffffffffffffffffffffffffffffffffffffffffffffffffffffff1916148061042357507f5b5e139f000000000000000000000000000000000000000000000000000000007bffffffffffffffffffffffffffffffffffffffffffffffffffffffff1916827bffffffffffffffffffffffffffffffffffffffffffffffffffffffff1916145b80610433575061043282610b3e565b5b9050919050565b60606000805461044990612800565b80601f016020809104026020016040519081016040528092919081815260200182805461047590612800565b80156104c25780601f10610497576101008083540402835291602001916104c2565b820191906000526020600020905b8154815290600101906020018083116104a557829003601f168201915b5050505050905090565b60006104d782610ba8565b6004600083815260200190815260200160002060009054906101000a900473ffffffffffffffffffffffffffffffffffffffff169050919050565b600061051d82610737565b90508073ffffffffffffffffffffffffffffffffffffffff168373ffffffffffffffffffffffffffffffffffffffff16141561058e576040517f08c379a0000000000000000000000000000000000000000000000000000000008152600401610585906125ac565b60405180910390fd5b8073ffffffffffffffffffffffffffffffffffffffff166105ad610bf3565b73ffffffffffffffffffffffffffffffffffffffff1614806105dc57506105db816105d6610bf3565b610a26565b5b61061b576040517f08c379a0000000000000000000000000000000000000000000000000000000008152600401610612906125cc565b60405180910390fd5b6106258383610bfb565b505050565b61063b610635610bf3565b82610cb4565b61067a576040517f08c379a00000000000000000000000000000000000000000000000000000000081526004016106719061242c565b60405180910390fd5b610685838383610d49565b505050565b610692611043565b600073ffffffffffffffffffffffffffffffffffffffff166106b382610737565b73ffffffffffffffffffffffffffffffffffffffff1614610709576040517f08c379a00000000000000000000000000000000000000000000000000000000081526004016107009061244c565b60405180910390fd5b61071382826110c1565b5050565b6107328383836040518060200160405280600081525061095c565b505050565b600080610743836110df565b9050600073ffffffffffffffffffffffffffffffffffffffff168173ffffffffffffffffffffffffffffffffffffffff1614156107b5576040517f08c379a00000000000000000000000000000000000000000000000000000000081526004016107ac9061258c565b60405180910390fd5b80915050919050565b60008073ffffffffffffffffffffffffffffffffffffffff168273ffffffffffffffffffffffffffffffffffffffff16141561082f576040517f08c379a00000000000000000000000000000000000000000000000000000000081526004016108269061252c565b60405180910390fd5b600360008373ffffffffffffffffffffffffffffffffffffffff1673ffffffffffffffffffffffffffffffffffffffff168152602001908152602001600020549050919050565b61087e611043565b610888600061111c565b565b6000600660009054906101000a900473ffffffffffffffffffffffffffffffffffffffff16905090565b6060600180546108c390612800565b80601f01602080910402602001604051908101604052809291908181526020018280546108ef90612800565b801561093c5780601f106109115761010080835404028352916020019161093c565b820191906000526020600020905b81548152906001019060200180831161091f57829003601f168201915b5050505050905090565b610958610951610bf3565b83836111e2565b5050565b61096d610967610bf3565b83610cb4565b6109ac576040517f08c379a00000000000000000000000000000000000000000000000000000000081526004016109a39061242c565b60405180910390fd5b6109b88484848461134f565b50505050565b60606109c982610ba8565b60006109d36113ab565b905060008151116109f35760405180602001604052806000815250610a1e565b806109fd846113c2565b604051602001610a0e929190612364565b6040516020818303038152906040525b915050919050565b6000600560008473ffffffffffffffffffffffffffffffffffffffff1673ffffffffffffffffffffffffffffffffffffffff16815260200190815260200160002060008373ffffffffffffffffffffffffffffffffffffffff1673ffffffffffffffffffffffffffffffffffffffff16815260200190815260200160002060009054906101000a900460ff16905092915050565b610ac2611043565b600073ffffffffffffffffffffffffffffffffffffffff168173ffffffffffffffffffffffffffffffffffffffff161415610b32576040517f08c379a0000000000000000000000000000000000000000000000000000000008152600401610b299061248c565b60405180910390fd5b610b3b8161111c565b50565b60007f01ffc9a7000000000000000000000000000000000000000000000000000000007bffffffffffffffffffffffffffffffffffffffffffffffffffffffff1916827bffffffffffffffffffffffffffffffffffffffffffffffffffffffff1916149050919050565b610bb1816114e6565b610bf0576040517f08c379a0000000000000000000000000000000000000000000000000000000008152600401610be79061258c565b60405180910390fd5b50565b600033905090565b816004600083815260200190815260200160002060006101000a81548173ffffffffffffffffffffffffffffffffffffffff021916908373ffffffffffffffffffffffffffffffffffffffff160217905550808273ffffffffffffffffffffffffffffffffffffffff16610c6e83610737565b73ffffffffffffffffffffffffffffffffffffffff167f8c5be1e5ebec7d5bd14f71427d1e84f3dd0314c0f7b2291e5b200ac8c7c3b92560405160405180910390a45050565b600080610cc083610737565b90508073ffffffffffffffffffffffffffffffffffffffff168473ffffffffffffffffffffffffffffffffffffffff161480610d025750610d018185610a26565b5b80610d4057508373ffffffffffffffffffffffffffffffffffffffff16610d28846104cc565b73ffffffffffffffffffffffffffffffffffffffff16145b91505092915050565b8273ffffffffffffffffffffffffffffffffffffffff16610d6982610737565b73ffffffffffffffffffffffffffffffffffffffff1614610dbf576040517f08c379a0000000000000000000000000000000000000000000000000000000008152600401610db6906124ac565b60405180910390fd5b600073ffffffffffffffffffffffffffffffffffffffff168273ffffffffffffffffffffffffffffffffffffffff161415610e2f576040517f08c379a0000000000000000000000000000000000000000000000000000000008152600401610e26906124ec565b60405180910390fd5b610e3c8383836001611527565b8273ffffffffffffffffffffffffffffffffffffffff16610e5c82610737565b73ffffffffffffffffffffffffffffffffffffffff1614610eb2576040517f08c379a0000000000000000000000000000000000000000000000000000000008152600401610ea9906124ac565b60405180910390fd5b6004600082815260200190815260200160002060006101000a81549073ffffffffffffffffffffffffffffffffffffffff02191690556001600360008573ffffffffffffffffffffffffffffffffffffffff1673ffffffffffffffffffffffffffffffffffffffff168152602001908152602001600020600082825403925050819055506001600360008473ffffffffffffffffffffffffffffffffffffffff1673ffffffffffffffffffffffffffffffffffffffff16815260200190815260200160002060008282540192505081905550816002600083815260200190815260200160002060006101000a81548173ffffffffffffffffffffffffffffffffffffffff021916908373ffffffffffffffffffffffffffffffffffffffff160217905550808273ffffffffffffffffffffffffffffffffffffffff168473ffffffffffffffffffffffffffffffffffffffff167fddf252ad1be2c89b69c2b068fc378daa952ba7f163c4a11628f55a4df523b3ef60405160405180910390a461103e83838360016115fe565b505050565b61104b610bf3565b73ffffffffffffffffffffffffffffffffffffffff1661106961088a565b73ffffffffffffffffffffffffffffffffffffffff16146110bf576040517f08c379a00000000000000000000000000000000000000000000000000000000081526004016110b69061256c565b60405180910390fd5b565b6110db828260405180602001604052806000815250611604565b5050565b60006002600083815260200190815260200160002060009054906101000a900473ffffffffffffffffffffffffffffffffffffffff169050919050565b6000600660009054906101000a900473ffffffffffffffffffffffffffffffffffffffff16905081600660006101000a81548173ffffffffffffffffffffffffffffffffffffffff021916908373ffffffffffffffffffffffffffffffffffffffff1602179055508173ffffffffffffffffffffffffffffffffffffffff168173ffffffffffffffffffffffffffffffffffffffff167f8be0079c531659141344cd1fd0a4f28419497f9722a3daafe3b4186f6b6457e060405160405180910390a35050565b8173ffffffffffffffffffffffffffffffffffffffff168373ffffffffffffffffffffffffffffffffffffffff161415611251576040517f08c379a00000000000000000000000000000000000000000000000000000000081526004016112489061250c565b60405180910390fd5b80600560008573ffffffffffffffffffffffffffffffffffffffff1673ffffffffffffffffffffffffffffffffffffffff16815260200190815260200160002060008473ffffffffffffffffffffffffffffffffffffffff1673ffffffffffffffffffffffffffffffffffffffff16815260200190815260200160002060006101000a81548160ff0219169083151502179055508173ffffffffffffffffffffffffffffffffffffffff168373ffffffffffffffffffffffffffffffffffffffff167f17307eab39ab6107e8899845ad3d59bd9653f200f220920489ca2b5937696c318360405161134291906123ef565b60405180910390a3505050565b61135a848484610d49565b6113668484848461165f565b6113a5576040517f08c379a000000000000000000000000000000000000000000000000000000000815260040161139c9061246c565b60405180910390fd5b50505050565b606060405180602001604052806000815250905090565b6060600060016113d1846117f6565b01905060008167ffffffffffffffff811115611416577f4e487b7100000000000000000000000000000000000000000000000000000000600052604160045260246000fd5b6040519080825280601f01601f1916602001820160405280156114485781602001600182028036833780820191505090505b509050600082602001820190505b6001156114db578080600190039150507f3031323334353637383961626364656600000000000000000000000000000000600a86061a8153600a85816114c5577f4e487b7100000000000000000000000000000000000000000000000000000000600052601260045260246000fd5b04945060008514156114d6576114db565b611456565b819350505050919050565b60008073ffffffffffffffffffffffffffffffffffffffff16611508836110df565b73ffffffffffffffffffffffffffffffffffffffff1614159050919050565b600073ffffffffffffffffffffffffffffffffffffffff168473ffffffffffffffffffffffffffffffffffffffff1614806115ad57507f000000000000000000000000000000000000000000000000000000000000000073ffffffffffffffffffffffffffffffffffffffff168373ffffffffffffffffffffffffffffffffffffffff16145b6115ec576040517f08c379a00000000000000000000000000000000000000000000000000000000081526004016115e3906125ec565b60405180910390fd5b6115f884848484611a2d565b50505050565b50505050565b61160e8383611b53565b61161b600084848461165f565b61165a576040517f08c379a00000000000000000000000000000000000000000000000000000000081526004016116519061246c565b60405180910390fd5b505050565b60006116808473ffffffffffffffffffffffffffffffffffffffff16611d71565b156117e9578373ffffffffffffffffffffffffffffffffffffffff1663150b7a026116a9610bf3565b8786866040518563ffffffff1660e01b81526004016116cb94939291906123a3565b602060405180830381600087803b1580156116e557600080fd5b505af192505050801561171657506040513d601f19601f820116820180604052508101906117139190612035565b60015b611799573d8060008114611746576040519150601f19603f3d011682016040523d82523d6000602084013e61174b565b606091505b50600081511415611791576040517f08c379a00000000000000000000000000000000000000000000000000000000081526004016117889061246c565b60405180910390fd5b805181602001fd5b63150b7a0260e01b7bffffffffffffffffffffffffffffffffffffffffffffffffffffffff1916817bffffffffffffffffffffffffffffffffffffffffffffffffffffffff1916149150506117ee565b600190505b949350505050565b600080600090507a184f03e93ff9f4daa797ed6e38ed64bf6a1f010000000000000000831061187a577a184f03e93ff9f4daa797ed6e38ed64bf6a1f0100000000000000008381611870577f4e487b7100000000000000000000000000000000000000000000000000000000600052601260045260246000fd5b0492506040810190505b6d04ee2d6d415b85acef810000000083106118dd576d04ee2d6d415b85acef810000000083816118d3577f4e487b7100000000000000000000000000000000000000000000000000000000600052601260045260246000fd5b0492506020810190505b662386f26fc10000831061193257662386f26fc100008381611928577f4e487b7100000000000000000000000000000000000000000000000000000000600052601260045260246000fd5b0492506010810190505b6305f5e1008310611981576305f5e1008381611977577f4e487b7100000000000000000000000000000000000000000000000000000000600052601260045260246000fd5b0492506008810190505b61271083106119cc5761271083816119c2577f4e487b7100000000000000000000000000000000000000000000000000000000600052601260045260246000fd5b0492506004810190505b60648310611a155760648381611a0b577f4e487b7100000000000000000000000000000000000000000000000000000000600052601260045260246000fd5b0492506002810190505b600a8310611a24576001810190505b80915050919050565b6001811115611b4d57600073ffffffffffffffffffffffffffffffffffffffff168473ffffffffffffffffffffffffffffffffffffffff1614611ac15780600360008673ffffffffffffffffffffffffffffffffffffffff1673ffffffffffffffffffffffffffffffffffffffff1681526020019081526020016000206000828254611ab99190612716565b925050819055505b600073ffffffffffffffffffffffffffffffffffffffff168373ffffffffffffffffffffffffffffffffffffffff1614611b4c5780600360008573ffffffffffffffffffffffffffffffffffffffff1673ffffffffffffffffffffffffffffffffffffffff1681526020019081526020016000206000828254611b4491906126c0565b925050819055505b5b50505050565b600073ffffffffffffffffffffffffffffffffffffffff168273ffffffffffffffffffffffffffffffffffffffff161415611bc3576040517f08c379a0000000000000000000000000000000000000000000000000000000008152600401611bba9061254c565b60405180910390fd5b611bcc816114e6565b15611c0c576040517f08c379a0000000000000000000000000000000000000000000000000000000008152600401611c03906124cc565b60405180910390fd5b611c1a600083836001611527565b611c23816114e6565b15611c63576040517f08c379a0000000000000000000000000000000000000000000000000000000008152600401611c5a906124cc565b60405180910390fd5b6001600360008473ffffffffffffffffffffffffffffffffffffffff1673ffffffffffffffffffffffffffffffffffffffff16815260200190815260200160002060008282540192505081905550816002600083815260200190815260200160002060006101000a81548173ffffffffffffffffffffffffffffffffffffffff021916908373ffffffffffffffffffffffffffffffffffffffff160217905550808273ffffffffffffffffffffffffffffffffffffffff16600073ffffffffffffffffffffffffffffffffffffffff167fddf252ad1be2c89b69c2b068fc378daa952ba7f163c4a11628f55a4df523b3ef60405160405180910390a4611d6d6000838360016115fe565b5050565b6000808273ffffffffffffffffffffffffffffffffffffffff163b119050919050565b6000611da7611da28461264c565b612627565b905082815260208101848484011115611dbf57600080fd5b611dca8482856127be565b509392505050565b600081359050611de181612c98565b92915050565b600081359050611df681612caf565b92915050565b600081359050611e0b81612cc6565b92915050565b600081519050611e2081612cc6565b92915050565b600082601f830112611e3757600080fd5b8135611e47848260208601611d94565b91505092915050565b600081359050611e5f81612cdd565b92915050565b600060208284031215611e7757600080fd5b6000611e8584828501611dd2565b91505092915050565b60008060408385031215611ea157600080fd5b6000611eaf85828601611dd2565b9250506020611ec085828601611dd2565b9150509250929050565b600080600060608486031215611edf57600080fd5b6000611eed86828701611dd2565b9350506020611efe86828701611dd2565b9250506040611f0f86828701611e50565b9150509250925092565b60008060008060808587031215611f2f57600080fd5b6000611f3d87828801611dd2565b9450506020611f4e87828801611dd2565b9350506040611f5f87828801611e50565b925050606085013567ffffffffffffffff811115611f7c57600080fd5b611f8887828801611e26565b91505092959194509250565b60008060408385031215611fa757600080fd5b6000611fb585828601611dd2565b9250506020611fc685828601611de7565b9150509250929050565b60008060408385031215611fe357600080fd5b6000611ff185828601611dd2565b925050602061200285828601611e50565b9150509250929050565b60006020828403121561201e57600080fd5b600061202c84828501611dfc565b91505092915050565b60006020828403121561204757600080fd5b600061205584828501611e11565b91505092915050565b60006020828403121561207057600080fd5b600061207e84828501611e50565b91505092915050565b6120908161274a565b82525050565b61209f8161275c565b82525050565b60006120b08261267d565b6120ba8185612693565b93506120ca8185602086016127cd565b6120d3816128f0565b840191505092915050565b60006120e982612688565b6120f381856126a4565b93506121038185602086016127cd565b61210c816128f0565b840191505092915050565b600061212282612688565b61212c81856126b5565b935061213c8185602086016127cd565b80840191505092915050565b6000612155602d836126a4565b915061216082612901565b604082019050919050565b60006121786014836126a4565b915061218382612950565b602082019050919050565b600061219b6032836126a4565b91506121a682612979565b604082019050919050565b60006121be6026836126a4565b91506121c9826129c8565b604082019050919050565b60006121e16025836126a4565b91506121ec82612a17565b604082019050919050565b6000612204601c836126a4565b915061220f82612a66565b602082019050919050565b60006122276024836126a4565b915061223282612a8f565b604082019050919050565b600061224a6019836126a4565b915061225582612ade565b602082019050919050565b600061226d6029836126a4565b915061227882612b07565b604082019050919050565b60006122906020836126a4565b915061229b82612b56565b602082019050919050565b60006122b36020836126a4565b91506122be82612b7f565b602082019050919050565b60006122d66018836126a4565b91506122e182612ba8565b602082019050919050565b60006122f96021836126a4565b915061230482612bd1565b604082019050919050565b600061231c603d836126a4565b915061232782612c20565b604082019050919050565b600061233f601a836126a4565b915061234a82612c6f565b602082019050919050565b61235e816127b4565b82525050565b60006123708285612117565b915061237c8284612117565b91508190509392505050565b600060208201905061239d6000830184612087565b92915050565b60006080820190506123b86000830187612087565b6123c56020830186612087565b6123d26040830185612355565b81810360608301526123e481846120a5565b905095945050505050565b60006020820190506124046000830184612096565b92915050565b6000602082019050818103600083015261242481846120de565b905092915050565b6000602082019050818103600083015261244581612148565b9050919050565b600060208201905081810360008301526124658161216b565b9050919050565b600060208201905081810360008301526124858161218e565b9050919050565b600060208201905081810360008301526124a5816121b1565b9050919050565b600060208201905081810360008301526124c5816121d4565b9050919050565b600060208201905081810360008301526124e5816121f7565b9050919050565b600060208201905081810360008301526125058161221a565b9050919050565b600060208201905081810360008301526125258161223d565b9050919050565b6000602082019050818103600083015261254581612260565b9050919050565b6000602082019050818103600083015261256581612283565b9050919050565b60006020820190508181036000830152612585816122a6565b9050919050565b600060208201905081810360008301526125a5816122c9565b9050919050565b600060208201905081810360008301526125c5816122ec565b9050919050565b600060208201905081810360008301526125e58161230f565b9050919050565b6000602082019050818103600083015261260581612332565b9050919050565b60006020820190506126216000830184612355565b92915050565b6000612631612642565b905061263d8282612832565b919050565b6000604051905090565b600067ffffffffffffffff821115612667576126666128c1565b5b612670826128f0565b9050602081019050919050565b600081519050919050565b600081519050919050565b600082825260208201905092915050565b600082825260208201905092915050565b600081905092915050565b60006126cb826127b4565b91506126d6836127b4565b9250827fffffffffffffffffffffffffffffffffffffffffffffffffffffffffffffffff0382111561270b5761270a612863565b5b828201905092915050565b6000612721826127b4565b915061272c836127b4565b92508282101561273f5761273e612863565b5b828203905092915050565b600061275582612794565b9050919050565b60008115159050919050565b60007fffffffff0000000000000000000000000000000000000000000000000000000082169050919050565b600073ffffffffffffffffffffffffffffffffffffffff82169050919050565b6000819050919050565b82818337600083830152505050565b60005b838110156127eb5780820151818401526020810190506127d0565b838111156127fa576000848401525b50505050565b6000600282049050600182168061281857607f821691505b6020821081141561282c5761282b612892565b5b50919050565b61283b826128f0565b810181811067ffffffffffffffff8211171561285a576128596128c1565b5b80604052505050565b7f4e487b7100000000000000000000000000000000000000000000000000000000600052601160045260246000fd5b7f4e487b7100000000000000000000000000000000000000000000000000000000600052602260045260246000fd5b7f4e487b7100000000000000000000000000000000000000000000000000000000600052604160045260246000fd5b6000601f19601f8301169050919050565b7f4552433732313a2063616c6c6572206973206e6f7420746f6b656e206f776e6560008201527f72206f7220617070726f76656400000000000000000000000000000000000000602082015250565b7f546f6b656e20616c7265616479206d696e746564000000000000000000000000600082015250565b7f4552433732313a207472616e7366657220746f206e6f6e20455243373231526560008201527f63656976657220696d706c656d656e7465720000000000000000000000000000602082015250565b7f4f776e61626c653a206e6577206f776e657220697320746865207a65726f206160008201527f6464726573730000000000000000000000000000000000000000000000000000602082015250565b7f4552433732313a207472616e736665722066726f6d20696e636f72726563742060008201527f6f776e6572000000000000000000000000000000000000000000000000000000602082015250565b7f4552433732313a20746f6b656e20616c7265616479206d696e74656400000000600082015250565b7f4552433732313a207472616e7366657220746f20746865207a65726f2061646460008201527f7265737300000000000000000000000000000000000000000000000000000000602082015250565b7f4552433732313a20617070726f766520746f2063616c6c657200000000000000600082015250565b7f4552433732313a2061646472657373207a65726f206973206e6f74206120766160008201527f6c6964206f776e65720000000000000000000000000000000000000000000000602082015250565b7f4552433732313a206d696e7420746f20746865207a65726f2061646472657373600082015250565b7f4f776e61626c653a2063616c6c6572206973206e6f7420746865206f776e6572600082015250565b7f4552433732313a20696e76616c696420746f6b656e2049440000000000000000600082015250565b7f4552433732313a20617070726f76616c20746f2063757272656e74206f776e6560008201527f7200000000000000000000000000000000000000000000000000000000000000602082015250565b7f4552433732313a20617070726f76652063616c6c6572206973206e6f7420746f60008201527f6b656e206f776e6572206f7220617070726f76656420666f7220616c6c000000602082015250565b7f546f6b656e207472616e73666572206e6f7420616c6c6f776564000000000000600082015250565b612ca18161274a565b8114612cac57600080fd5b50565b612cb88161275c565b8114612cc357600080fd5b50565b612ccf81612768565b8114612cda57600080fd5b50565b612ce6816127b4565b8114612cf157600080fd5b5056fea2646970667358221220440956f7a7ba8cc4d8646c2529f6ba863ce73d970e3f591fd7240092af19e70264736f6c63430008040033",
  "linkReferences": {},
  "deployedLinkReferences": {}
}